{
  "_format": "hh-sol-artifact-1",
  "contractName": "Sample",
  "sourceName": "contracts/Sample.sol",
  "abi": [
    {
      "inputs": [],
      "stateMutability": "nonpayable",
      "type": "constructor"
    },
    {
      "anonymous": false,
      "inputs": [
        {
          "indexed": false,
          "internalType": "uint256",
          "name": "amount",
          "type": "uint256"
        },
        {
          "indexed": false,
          "internalType": "address",
          "name": "to",
          "type": "address"
        }
      ],
      "name": "Minted",
      "type": "event"
    },
    {
      "anonymous": false,
      "inputs": [
        {
          "indexed": false,
          "internalType": "address",
          "name": "sender",
          "type": "address"
        },
        {
          "indexed": false,
          "internalType": "uint256",
          "name": "_amount",
          "type": "uint256"
        },
        {
          "indexed": false,
          "internalType": "address",
          "name": "receiver1",
          "type": "address"
        },
        {
          "indexed": false,
          "internalType": "address",
          "name": "receiver2",
          "type": "address"
        }
      ],
      "name": "Transfered",
      "type": "event"
    },
    {
      "inputs": [
        {
          "internalType": "address",
          "name": "",
          "type": "address"
        }
      ],
      "name": "balances",
      "outputs": [
        {
          "internalType": "uint256",
          "name": "",
          "type": "uint256"
        }
      ],
      "stateMutability": "view",
      "type": "function"
    },
    {
      "inputs": [
        {
          "internalType": "uint256",
          "name": "_amount",
          "type": "uint256"
        },
        {
          "internalType": "address",
          "name": "_to",
          "type": "address"
        }
      ],
      "name": "mint",
      "outputs": [],
      "stateMutability": "nonpayable",
      "type": "function"
    },
    {
      "inputs": [],
      "name": "owner",
      "outputs": [
        {
          "internalType": "address",
          "name": "",
          "type": "address"
        }
      ],
      "stateMutability": "view",
      "type": "function"
    },
    {
      "inputs": [],
      "name": "total",
      "outputs": [
        {
          "internalType": "uint256",
          "name": "",
          "type": "uint256"
        }
      ],
      "stateMutability": "view",
      "type": "function"
    },
    {
      "inputs": [
        {
          "internalType": "uint256",
          "name": "_amount",
          "type": "uint256"
        },
        {
          "internalType": "address",
          "name": "_receiver1",
          "type": "address"
        },
        {
          "internalType": "address",
          "name": "_receiver2",
          "type": "address"
        }
      ],
      "name": "transfer",
      "outputs": [],
      "stateMutability": "nonpayable",
      "type": "function"
    }
  ],
  "bytecode": "0x608060405234801561001057600080fd5b5033600260006101000a81548173ffffffffffffffffffffffffffffffffffffffff021916908373ffffffffffffffffffffffffffffffffffffffff16021790555061006360643361006860201b60201c565b610202565b816000808373ffffffffffffffffffffffffffffffffffffffff1673ffffffffffffffffffffffffffffffffffffffff16815260200190815260200160002060008282546100b69190610133565b925050819055507fb9203d657e9c0ec8274c818292ab0f58b04e1970050716891770eb1bab5d655e82826040516100ee9291906101d9565b60405180910390a15050565b6000819050919050565b7f4e487b7100000000000000000000000000000000000000000000000000000000600052601160045260246000fd5b600061013e826100fa565b9150610149836100fa565b9250827fffffffffffffffffffffffffffffffffffffffffffffffffffffffffffffffff0382111561017e5761017d610104565b5b828201905092915050565b610192816100fa565b82525050565b600073ffffffffffffffffffffffffffffffffffffffff82169050919050565b60006101c382610198565b9050919050565b6101d3816101b8565b82525050565b60006040820190506101ee6000830185610189565b6101fb60208301846101ca565b9392505050565b6107a2806102116000396000f3fe608060405234801561001057600080fd5b50600436106100575760003560e01c806327e235e31461005c5780632ddbd13a1461008c5780638da5cb5b146100aa57806394bf804d146100c8578063ccb570e3146100e4575b600080fd5b61007660048036038101906100719190610424565b610100565b604051610083919061046a565b60405180910390f35b610094610118565b6040516100a1919061046a565b60405180910390f35b6100b261011e565b6040516100bf9190610494565b60405180910390f35b6100e260048036038101906100dd91906104db565b610144565b005b6100fe60048036038101906100f9919061051b565b6101e2565b005b60006020528060005260406000206000915090505481565b60015481565b600260009054906101000a900473ffffffffffffffffffffffffffffffffffffffff1681565b3373ffffffffffffffffffffffffffffffffffffffff16600260009054906101000a900473ffffffffffffffffffffffffffffffffffffffff1673ffffffffffffffffffffffffffffffffffffffff16146101d4576040517f08c379a00000000000000000000000000000000000000000000000000000000081526004016101cb906105cb565b60405180910390fd5b6101de828261032f565b5050565b826000808473ffffffffffffffffffffffffffffffffffffffff1673ffffffffffffffffffffffffffffffffffffffff1681526020019081526020016000206000828254610230919061061a565b92505081905550826000808373ffffffffffffffffffffffffffffffffffffffff1673ffffffffffffffffffffffffffffffffffffffff1681526020019081526020016000206000828254610285919061061a565b925050819055506002836102999190610670565b6000803373ffffffffffffffffffffffffffffffffffffffff1673ffffffffffffffffffffffffffffffffffffffff16815260200190815260200160002060008282546102e691906106ca565b925050819055507fca318a98b818d52219f1ba5eddc96d52b343ecb6727c9da8caead9fcadd37a873384848460405161032294939291906106fe565b60405180910390a1505050565b816000808373ffffffffffffffffffffffffffffffffffffffff1673ffffffffffffffffffffffffffffffffffffffff168152602001908152602001600020600082825461037d919061061a565b925050819055507fb9203d657e9c0ec8274c818292ab0f58b04e1970050716891770eb1bab5d655e82826040516103b5929190610743565b60405180910390a15050565b600080fd5b600073ffffffffffffffffffffffffffffffffffffffff82169050919050565b60006103f1826103c6565b9050919050565b610401816103e6565b811461040c57600080fd5b50565b60008135905061041e816103f8565b92915050565b60006020828403121561043a576104396103c1565b5b60006104488482850161040f565b91505092915050565b6000819050919050565b61046481610451565b82525050565b600060208201905061047f600083018461045b565b92915050565b61048e816103e6565b82525050565b60006020820190506104a96000830184610485565b92915050565b6104b881610451565b81146104c357600080fd5b50565b6000813590506104d5816104af565b92915050565b600080604083850312156104f2576104f16103c1565b5b6000610500858286016104c6565b92505060206105118582860161040f565b9150509250929050565b600080600060608486031215610534576105336103c1565b5b6000610542868287016104c6565b93505060206105538682870161040f565b92505060406105648682870161040f565b9150509250925092565b600082825260208201905092915050565b7f696e76616c6964206f776e657200000000000000000000000000000000000000600082015250565b60006105b5600d8361056e565b91506105c08261057f565b602082019050919050565b600060208201905081810360008301526105e4816105a8565b9050919050565b7f4e487b7100000000000000000000000000000000000000000000000000000000600052601160045260246000fd5b600061062582610451565b915061063083610451565b9250827fffffffffffffffffffffffffffffffffffffffffffffffffffffffffffffffff03821115610665576106646105eb565b5b828201905092915050565b600061067b82610451565b915061068683610451565b9250817fffffffffffffffffffffffffffffffffffffffffffffffffffffffffffffffff04831182151516156106bf576106be6105eb565b5b828202905092915050565b60006106d582610451565b91506106e083610451565b9250828210156106f3576106f26105eb565b5b828203905092915050565b60006080820190506107136000830187610485565b610720602083018661045b565b61072d6040830185610485565b61073a6060830184610485565b95945050505050565b6000604082019050610758600083018561045b565b6107656020830184610485565b939250505056fea2646970667358221220660a2d47167f96a6e4702131823632b21b60cc696c30d21e71e1b2e1542c942464736f6c63430008090033",
  "linkReferences": {},
  "deployedLinkReferences": {}
}