{
  "_format": "hh-sol-artifact-1",
  "contractName": "Sample",
  "sourceName": "contracts/Sample.sol",
  "abi": [
    {
      "inputs": [],
      "stateMutability": "nonpayable",
      "type": "constructor"
    },
    {
      "anonymous": false,
      "inputs": [
        {
          "indexed": false,
          "internalType": "uint256",
          "name": "amount",
          "type": "uint256"
        },
        {
          "indexed": false,
          "internalType": "address",
          "name": "to",
          "type": "address"
        }
      ],
      "name": "Minted",
      "type": "event"
    },
    {
      "anonymous": false,
      "inputs": [
        {
          "indexed": true,
          "internalType": "address",
          "name": "previousOwner",
          "type": "address"
        },
        {
          "indexed": true,
          "internalType": "address",
          "name": "newOwner",
          "type": "address"
        }
      ],
      "name": "OwnershipTransferred",
      "type": "event"
    },
    {
      "anonymous": false,
      "inputs": [
        {
          "indexed": false,
          "internalType": "address",
          "name": "sender",
          "type": "address"
        },
        {
          "indexed": false,
          "internalType": "uint256",
          "name": "_amount",
          "type": "uint256"
        },
        {
          "indexed": false,
          "internalType": "address",
          "name": "receiver1",
          "type": "address"
        },
        {
          "indexed": false,
          "internalType": "address",
          "name": "receiver2",
          "type": "address"
        }
      ],
      "name": "Transfered",
      "type": "event"
    },
    {
      "inputs": [
        {
          "internalType": "address",
          "name": "",
          "type": "address"
        }
      ],
      "name": "balances",
      "outputs": [
        {
          "internalType": "uint256",
          "name": "",
          "type": "uint256"
        }
      ],
      "stateMutability": "view",
      "type": "function"
    },
    {
      "inputs": [
        {
          "internalType": "uint256",
          "name": "_amount",
          "type": "uint256"
        },
        {
          "internalType": "address",
          "name": "_to",
          "type": "address"
        }
      ],
      "name": "mint",
      "outputs": [],
      "stateMutability": "nonpayable",
      "type": "function"
    },
    {
      "inputs": [],
      "name": "owner",
      "outputs": [
        {
          "internalType": "address",
          "name": "",
          "type": "address"
        }
      ],
      "stateMutability": "view",
      "type": "function"
    },
    {
      "inputs": [],
      "name": "renounceOwnership",
      "outputs": [],
      "stateMutability": "nonpayable",
      "type": "function"
    },
    {
      "inputs": [],
      "name": "total",
      "outputs": [
        {
          "internalType": "uint256",
          "name": "",
          "type": "uint256"
        }
      ],
      "stateMutability": "view",
      "type": "function"
    },
    {
      "inputs": [
        {
          "internalType": "uint256",
          "name": "_amount",
          "type": "uint256"
        },
        {
          "internalType": "address",
          "name": "_receiver1",
          "type": "address"
        },
        {
          "internalType": "address",
          "name": "_receiver2",
          "type": "address"
        }
      ],
      "name": "transfer",
      "outputs": [],
      "stateMutability": "nonpayable",
      "type": "function"
    },
    {
      "inputs": [
        {
          "internalType": "address",
          "name": "newOwner",
          "type": "address"
        }
      ],
      "name": "transferOwnership",
      "outputs": [],
      "stateMutability": "nonpayable",
      "type": "function"
    }
  ],
  "bytecode": "0x60806040523480156200001157600080fd5b5062000032620000266200004b60201b60201c565b6200005360201b60201c565b620000456064336200011760201b60201c565b620002c7565b600033905090565b60008060009054906101000a900473ffffffffffffffffffffffffffffffffffffffff169050816000806101000a81548173ffffffffffffffffffffffffffffffffffffffff021916908373ffffffffffffffffffffffffffffffffffffffff1602179055508173ffffffffffffffffffffffffffffffffffffffff168173ffffffffffffffffffffffffffffffffffffffff167f8be0079c531659141344cd1fd0a4f28419497f9722a3daafe3b4186f6b6457e060405160405180910390a35050565b81600160008373ffffffffffffffffffffffffffffffffffffffff1673ffffffffffffffffffffffffffffffffffffffff1681526020019081526020016000206000828254620001689190620001e7565b925050819055507fb9203d657e9c0ec8274c818292ab0f58b04e1970050716891770eb1bab5d655e8282604051620001a29291906200029a565b60405180910390a15050565b6000819050919050565b7f4e487b7100000000000000000000000000000000000000000000000000000000600052601160045260246000fd5b6000620001f482620001ae565b91506200020183620001ae565b9250827fffffffffffffffffffffffffffffffffffffffffffffffffffffffffffffffff03821115620002395762000238620001b8565b5b828201905092915050565b6200024f81620001ae565b82525050565b600073ffffffffffffffffffffffffffffffffffffffff82169050919050565b6000620002828262000255565b9050919050565b620002948162000275565b82525050565b6000604082019050620002b1600083018562000244565b620002c0602083018462000289565b9392505050565b610abf80620002d76000396000f3fe608060405234801561001057600080fd5b506004361061007d5760003560e01c80638da5cb5b1161005b5780638da5cb5b146100da57806394bf804d146100f8578063ccb570e314610114578063f2fde38b146101305761007d565b806327e235e3146100825780632ddbd13a146100b2578063715018a6146100d0575b600080fd5b61009c600480360381019061009791906106af565b61014c565b6040516100a991906106f5565b60405180910390f35b6100ba610164565b6040516100c791906106f5565b60405180910390f35b6100d861016a565b005b6100e26101f2565b6040516100ef919061071f565b60405180910390f35b610112600480360381019061010d9190610766565b61021b565b005b61012e600480360381019061012991906107a6565b6102a5565b005b61014a600480360381019061014591906106af565b6103f5565b005b60016020528060005260406000206000915090505481565b60025481565b6101726104ed565b73ffffffffffffffffffffffffffffffffffffffff166101906101f2565b73ffffffffffffffffffffffffffffffffffffffff16146101e6576040517f08c379a00000000000000000000000000000000000000000000000000000000081526004016101dd90610856565b60405180910390fd5b6101f060006104f5565b565b60008060009054906101000a900473ffffffffffffffffffffffffffffffffffffffff16905090565b6102236104ed565b73ffffffffffffffffffffffffffffffffffffffff166102416101f2565b73ffffffffffffffffffffffffffffffffffffffff1614610297576040517f08c379a000000000000000000000000000000000000000000000000000000000815260040161028e90610856565b60405180910390fd5b6102a182826105b9565b5050565b82600160008473ffffffffffffffffffffffffffffffffffffffff1673ffffffffffffffffffffffffffffffffffffffff16815260200190815260200160002060008282546102f491906108a5565b9250508190555082600160008373ffffffffffffffffffffffffffffffffffffffff1673ffffffffffffffffffffffffffffffffffffffff168152602001908152602001600020600082825461034a91906108a5565b9250508190555060028361035e91906108fb565b600160003373ffffffffffffffffffffffffffffffffffffffff1673ffffffffffffffffffffffffffffffffffffffff16815260200190815260200160002060008282546103ac9190610955565b925050819055507fca318a98b818d52219f1ba5eddc96d52b343ecb6727c9da8caead9fcadd37a87338484846040516103e89493929190610989565b60405180910390a1505050565b6103fd6104ed565b73ffffffffffffffffffffffffffffffffffffffff1661041b6101f2565b73ffffffffffffffffffffffffffffffffffffffff1614610471576040517f08c379a000000000000000000000000000000000000000000000000000000000815260040161046890610856565b60405180910390fd5b600073ffffffffffffffffffffffffffffffffffffffff168173ffffffffffffffffffffffffffffffffffffffff1614156104e1576040517f08c379a00000000000000000000000000000000000000000000000000000000081526004016104d890610a40565b60405180910390fd5b6104ea816104f5565b50565b600033905090565b60008060009054906101000a900473ffffffffffffffffffffffffffffffffffffffff169050816000806101000a81548173ffffffffffffffffffffffffffffffffffffffff021916908373ffffffffffffffffffffffffffffffffffffffff1602179055508173ffffffffffffffffffffffffffffffffffffffff168173ffffffffffffffffffffffffffffffffffffffff167f8be0079c531659141344cd1fd0a4f28419497f9722a3daafe3b4186f6b6457e060405160405180910390a35050565b81600160008373ffffffffffffffffffffffffffffffffffffffff1673ffffffffffffffffffffffffffffffffffffffff168152602001908152602001600020600082825461060891906108a5565b925050819055507fb9203d657e9c0ec8274c818292ab0f58b04e1970050716891770eb1bab5d655e8282604051610640929190610a60565b60405180910390a15050565b600080fd5b600073ffffffffffffffffffffffffffffffffffffffff82169050919050565b600061067c82610651565b9050919050565b61068c81610671565b811461069757600080fd5b50565b6000813590506106a981610683565b92915050565b6000602082840312156106c5576106c461064c565b5b60006106d38482850161069a565b91505092915050565b6000819050919050565b6106ef816106dc565b82525050565b600060208201905061070a60008301846106e6565b92915050565b61071981610671565b82525050565b60006020820190506107346000830184610710565b92915050565b610743816106dc565b811461074e57600080fd5b50565b6000813590506107608161073a565b92915050565b6000806040838503121561077d5761077c61064c565b5b600061078b85828601610751565b925050602061079c8582860161069a565b9150509250929050565b6000806000606084860312156107bf576107be61064c565b5b60006107cd86828701610751565b93505060206107de8682870161069a565b92505060406107ef8682870161069a565b9150509250925092565b600082825260208201905092915050565b7f4f776e61626c653a2063616c6c6572206973206e6f7420746865206f776e6572600082015250565b60006108406020836107f9565b915061084b8261080a565b602082019050919050565b6000602082019050818103600083015261086f81610833565b9050919050565b7f4e487b7100000000000000000000000000000000000000000000000000000000600052601160045260246000fd5b60006108b0826106dc565b91506108bb836106dc565b9250827fffffffffffffffffffffffffffffffffffffffffffffffffffffffffffffffff038211156108f0576108ef610876565b5b828201905092915050565b6000610906826106dc565b9150610911836106dc565b9250817fffffffffffffffffffffffffffffffffffffffffffffffffffffffffffffffff048311821515161561094a57610949610876565b5b828202905092915050565b6000610960826106dc565b915061096b836106dc565b92508282101561097e5761097d610876565b5b828203905092915050565b600060808201905061099e6000830187610710565b6109ab60208301866106e6565b6109b86040830185610710565b6109c56060830184610710565b95945050505050565b7f4f776e61626c653a206e6577206f776e657220697320746865207a65726f206160008201527f6464726573730000000000000000000000000000000000000000000000000000602082015250565b6000610a2a6026836107f9565b9150610a35826109ce565b604082019050919050565b60006020820190508181036000830152610a5981610a1d565b9050919050565b6000604082019050610a7560008301856106e6565b610a826020830184610710565b939250505056fea2646970667358221220187190561149f11bf70c0d6077a98c4acc354a1c065b7458f21ffca3b3906d3e64736f6c63430008090033",
  "linkReferences": {},
  "deployedLinkReferences": {}
}